:020000040000FA
:10000000680800206D020000710200007302000009
:100010007502000077020000790200000000000075
:100020000000000000000000000000007B02000053
:100030007D020000000000007F020000810200003D
:10004000830200008302000083020000830200009C
:10005000830200008302000083020000830200008C
:10006000830200008302000083020000830200007C
:10007000830200008302000083020000830200006C
:10008000830200008302000083020000830200005C
:10009000830200008302000083020000830200004C
:1000A000830200008302000083020000830200003C
:1000B000830200008302000083020000830200002C
:1000C000830200008302000083020000830200001C
:1000D000830200008302000083020000830200000C
:1000E00083020000830200008302000083020000FC
:1000F00083020000830200008302000083020000EC
:1001000083020000830200008302000083020000DB
:1001100083020000830200008302000083020000CB
:1001200083020000830200008302000083020000BB
:1001300083020000830200008302000083020000AB
:1001400000000000000000000000000000000000AF
:10015000830200008302000083020000830200008B
:10016000000000000000000000000000000000008F
:10017000000000000000000000000000000000007F
:10018000000000000000000000000000000000006F
:10019000000000000000000000000000000000005F
:1001A000000000000000000000000000000000004F
:1001B000830200008302000083020000830200002B
:1001C000830200008302000083020000830200001B
:1001D000830200008302000083020000830200000B
:1001E00083020000830200008302000083020000FB
:1001F00083020000830200008302000083020000EB
:10020000830200008302000083020000000000005F
:1002100083020000830200008302000083020000CA
:1002200083020000830200008302000083020000BA
:1002300083020000830200008302000083020000AA
:10024000830200008302000083020000830200009A
:10025000830200008302000083020000830200008A
:1002600083020000830200008302000000F00AB84D
:10027000FEE7FEE7FEE7FEE7FEE7FEE7FEE7FEE756
:10028000FEE7FEE700F002F800F035F80AA090E87B
:10029000000C82448344AAF10107DA4501D100F041
:1002A0002AF8AFF2090EBAE80F0013F0010F18BFD9
:1002B000FB1A43F001031847EC0F0000FC0F00008D
:1002C0000023002400250026103A28BF78C1FBD85F
:1002D000520728BF30C148BF0B6070471FB500F000
:1002E00049F804000020002100F070FC401C606010
:1002F0001FBD10B510BD00F045F81146FFF7EEFF29
:1003000000F006FC00F063F803B4FFF7F2FF03BC53
:1003100000F0A4F872B6704762B67047EFF3108031
:1003200072B6704780F31088704730BF704702483C
:100330000249014A024B7047680400206808002007
:100340006804002010B5044600F00CF80068005D59
:10035000C00602D504F1200010BD204610BD704734
:100360007047704710B500F005F8001D10BD00BFC4
:100370005D080000004870472000002000487047DA
:10038000000000207546FFF7F9FFAE4605006946FC
:10039000534620F00700854618B020B5FFF7C7FF89
:1003A000BDE820404FF000064FF000074FF0000876
:1003B0004FF0000BAC46ACE8C009ACE8C009ACE8B3
:1003C000C009ACE8C00921F007018D46704710B59F
:1003D0000446AFF300802046BDE81040FFF794BF0D
:1003E00030B44FF0013C50F8042B51F8043BCCFAE8
:1003F00052F4D51A20D1FCB950F8042B51F8043B23
:10040000CCFA52F4D51A17D1B4B950F8042B51F8DC
:10041000043BCCFA52F4D51A0ED16CB950F8042B27
:1004200051F8043BCCFA52F4D51A05D1002CDAD09D
:1004300030BC4FF00000704729BAB1FA81F111F0D9
:100440001801D1F120008440F2D1CA40CB4012F013
:10045000FF0213F0FF0330BCD01A70470149182087
:10046000ABBEFEE7260002007047000080B500F03A
:10047000E9FA00F0FBFA80BD80B582B040F260017D
:10048000C2F200010868496800F0A6FC002201924F
:1004900046F60023CCF2C80300F0AEFB019B1A46DF
:1004A00000F0B6FEB8B9FFE740F26001C2F2000109
:1004B00000910868496800F08FFC002246F600238E
:1004C000CCF2C80300F098FB00F0B0FE0A46009999
:1004D0004A60086008E040F26001C2F200010020BA
:1004E000486001200860FFE740F26000C2F20000AF
:1004F0000168084600F012FA02B080BD80B582B0F3
:1005000040F26001C2F200010868496800F064FC32
:100510000022019246F60023C4F2C80300F06CFBEF
:10052000019A46F60023C4F2E80300F06AFEB8B967
:10053000FFE740F26001C2F20001009108684968DB
:1005400000F04AFC002246F60023C4F2C80300F083
:1005500053FB00F06BFE0A4600994A60086009E010
:1005600040F26001C2F20001002048604CF24F30BE
:100570000860FFE740F26000C2F200000168084630
:1005800000F0CCF902B080BD704700004EF20811B7
:10059000C4F20F01086840F020000860FFE74EF247
:1005A0000810C4F20F0000688006002801D4FFE79D
:1005B000F5E745F22051C4F2020144F24B30C4F693
:1005C0004F40086045F22451C4F20201086840F02F
:1005D0000E00086045F22851C4F20201086820F0BC
:1005E0000E00086045F22C51C4F2020108686FF356
:1005F0001300086045F20041C4F20201086840F0AF
:100600000E00086045F22041C4F20201086820F0A3
:100610000E00086045F21C51C4F20201086840F067
:100620000E00086045F23801C4F2020100200860A3
:10063000704700004EF24061C4F20F01086840F0BC
:10064000010008604EF20861C4F20F01086840F032
:100650000200086045F22041C4F20001086840F041
:100660008000086045F22C51C4F20001086820F0B7
:1006700070400860086840F08040086045F22851EA
:10068000C4F20001086820F08000086045F21C51A7
:10069000C4F20001086840F0800008604EF260017A
:1006A000C4F20F01086840F480100860086820F464
:1006B000602008600868086048F24001C4F2020146
:1006C0000020086048F26403C4F2020340F60842C6
:1006D0001A6048F25003C4F202034CF24F321A601F
:1006E00048F25C02C4F202021060086840F00100A7
:1006F000086048F20801C4F20201086840F00200F4
:10070000086070474EF20811C4F20F01086840F00B
:1007100010000860FFE74EF20810C4F20F000068F6
:1007200000F01000102801D0FFE7F4E744F2285150
:10073000C4F20201086820F00F00086044F22C5156
:10074000C4F2020108684FF6FF729043086044F259
:100750000041C4F20201086840F00F00086044F252
:100760002041C4F20201086820F00F00086044F242
:100770001C51C4F20201086840F00F000860704785
:1007800080B540F26001C2F2000100204860012003
:10079000086000F0D7F8FFF74DFFFFF7B3FF80BD0B
:1007A00045F23801C4F202010420086044F23C0121
:1007B000C4F202010A20086048F20801C4F20201F2
:1007C000086840F002000860086840F00100086016
:1007D0007047000045F23801C4F2020108200860A9
:1007E00044F23C01C4F202010F20086048F2080103
:1007F000C4F20201086840F002000860086840F096
:10080000010008607047000045F23801C4F202019F
:100810000A20086044F23C01C4F202010F20086083
:1008200048F20801C4F20201086820F002000860E2
:10083000086840F0010008607047000045F2380188
:10084000C4F202010620086044F23C01C4F2020135
:100850000F20086048F20801C4F20201086840F065
:1008600002000860086820F001000860704700007E
:1008700045F23801C4F202010020086048F2080184
:10088000C4F20201086820F002000860086820F045
:10089000010008607047000081B04EF27001C4F2A0
:1008A0000F010091086840F000400860086840F4BB
:1008B000006008604EF26002C4F20F02106820F47B
:1008C000F8601060106800F5A8601060086820F0FB
:1008D0007000086008680860086820F4005008602C
:1008E000086840F0804008600868072262F39C5066
:1008F0000860FFE74EF25000C4F20F0000684006A7
:10090000002801D4FFE7F5E74EF27001C4F20F01B1
:10091000086820F40060086001B0704782B0019060
:1009200000910098013848F25801C4F202010860B1
:100930000198013848F25C01C4F20201086002B07B
:10094000704700004EF24061C4F20F01086840F0A9
:10095000010008604EF20861C4F20F01086840F01F
:1009600002000860FFE74EF20860C4F20F00006862
:100970008007002801D4FFE7F5E745F22041C4F2E3
:100980000001086840F04000086045F22C51C4F2B4
:100990000001086820F070600860086840F080601E
:1009A000086045F22851C4F20001086820F04000B8
:1009B000086045F21C51C4F20001086840F0400094
:1009C000086045F20851C4F20001086840F0C00018
:1009D00008604EF26001C4F20F010868082262F359
:1009E0005440086048F24001C4F20201002008604F
:1009F00048F26003C4F20203C8221A6048F25003AE
:100A0000C4F202034CF24F321A6048F25802C4F2A8
:100A100002021060086840F00100086048F2080116
:100A2000C4F20201086840F001000860704700004D
:100A300080B5FFF731FFFFF7A9FDFFF7A1FEFFF734
:100A400015FD80BD70470000FFE74DF21800C4F2AD
:100A500000000068C006002801D5FFE7F5E74DF269
:100A60000000C4F200000068C0B270474EF20411EA
:100A7000C4F20F01086840F0020008604EF208114D
:100A8000C4F20F01086840F0020008604DF2300126
:100A9000C4F20001086820F0010008604DF2240251
:100AA000C4F20002362010604DF22802C4F20002A7
:100AB000102010604DF22C02C4F200027020106071
:100AC000086840F201321043086045F22041C4F248
:100AD0000001086840F00300086045F21C51C4F2B0
:100AE0000001086840F00300086045F22C51C4F290
:100AF00000010868112262F30700086045F22851DE
:100B0000C4F20001086820F003000860704700008C
:100B100080B584B0002000900390FFF789FF009813
:100B20000190FFE70198FE2810DCFFE7019A40F2F0
:100B30006801C2F2000140F28950C0F2000041F8A1
:100B40002200FFE7019801300190EBE740F26801D5
:100B5000C2F2000140F2D570C0F20000C1F8980165
:100B600040F2A170C0F20000C1F8880140F609000F
:100B7000C0F20000C1F8B00140F63D00C0F2000034
:100B8000C1F8C80140F67100C0F20000C1F8CC0104
:100B900040F2FD40C0F20000C1F8D40140F27940BB
:100BA000C0F20000C1F89001FFE7FFF74DFF8DF89C
:100BB0000B009DF80B00FFF7C5FB014640F26800F3
:100BC000C2F2000050F821008047EEE710B500297E
:100BD0000AD00878002807D005487844FFF700FCC1
:100BE000002801D0002010BD0248784410BD00004C
:100BF000DA060000D206000010B591EA030F48BFE4
:100C000083F0004300F10282841A71EB030C05D2D9
:100C1000121943EB0C03001B61EB0C014FEA11545A
:100C2000A4EB135CDFF81CE11EEA430F18BF9EEA39
:100C3000445F00F0748021EA045123EA0E0343F478
:100C40008013DCF1200E32D322FA0CFE10EB0E00E2
:100C500023FA0CFE41EB0E01CCF1200E03FA0EFE3E
:100C600010EB0E00CCF1200E51F10001B1F5801F08
:100C700032D201EB045112FA0EF2BDE8104058BF17
:100C80007047401C38BF5FEA420218BF7047002817
:100C900014BF20F0010041F100014FEA410313F5B8
:100CA000001F38BF7047A1F1C04100F0A1B9012A6F
:100CB00043EB0302ACF1200CDCF11F0E32BF4FF00E
:100CC000000E23FA0CF310EB030041EB0451B4EBDC
:100CD000115FD0D0A1EB045101F58011490801EB5F
:100CE00004515FEA30000ED350F1000038BF12FA11
:100CF0000EFE08D1BDE81040C9E7401C38BF5FEACE
:100D00004202CAD1C3E7BDE810404FEA410313F5E0
:100D1000001F38BF7047A1F1C04100F069B99EEAD9
:100D2000445F08D011EA5E0FBDE8104004BF01F037
:100D3000004100207047BDE8104070B500F00AF98E
:100D400064FBBE3E0000E0FF491058BFC1F14041C6
:100D50005B1058BFC3F140438B42EFF300807047F4
:100D600051EA030C17D41CF5801F58BFBCF5801F37
:100D700000F10680994218BF704708BF9042704743
:100D800007D711F5801F58BF13F5801F19D499425A
:100D90007047894270471CF5801F08D5BCF5801F3D
:100DA000F7D58B4218BF704708BF824270474FF497
:100DB000001C1CEB410F38BF1CEB430F01D28B42D0
:100DC000704770B500F0C6F8922449004FF000510A
:100DD0004FF08053FFF7B8BFB1FA81F30B3B20D33C
:100DE000994010D1B0FA80F310FA03F108BF7047B0
:100DF000C3F11D0303F580634FEAD1224FEA41504E
:100E000002EB03517047C3F1200C20FA0CFC41EABD
:100E10000C019840C3F1320303F5806301EB0351E9
:100E20007047C3F1320C0CF5806210B5C3F10004B9
:100E3000C4F1200E01FA0EFC21FA04F100FA0EF3BF
:100E4000E04040EA0C00BDE8104001EB025138BF21
:100E50007047401C41F100015B0008BF20F0010019
:100E60007047000051EA030C17D41CF5801F58BFCF
:100E7000BCF5801F00F10680994218BF704708BF7B
:100E80009042704707D711F5801F58BF13F5801F98
:100E900019D499427047894270471CF5801F08D5C4
:100EA000BCF5801FF7D58B4218BF704708BF824240
:100EB00070474FF4001C1CEB410F38BF1CEB430F75
:100EC00001D28B42704770B500F044F8922449007B
:100ED0004FF080514FF00053FFF736BF51EA030C3B
:100EE00017D41CF5801F58BFBCF5801F00F1068089
:100EF000994218BF704708BF9042704707D711F555
:100F0000801F58BF13F5801F19D49942704789423A
:100F100070471CF5801F08D5BCF5801FF7D58B42A4
:100F200018BF704708BF824270474FF4001C1CEB8B
:100F3000410F38BF1CEB430F01D28B42704770B595
:100F400000F008F8922449004FF000514FF0805310
:100F5000FFF7FABE0EF1020E2EF0030E5EF8046BE0
:100F6000364205D4012A43EB030515F5001F12D8BC
:100F7000012841EB010C1CF5001F0CD80ED14FEAE3
:100F8000D17C0CEB4C0C0CF1020C15F5001F08BFCA
:100F90004CEBD37C04E04FF0080C01E04FEAD37C2B
:100FA0000CEB4C0526FA05F606F00706B6F1040C24
:100FB00006D20EEB860CBDE870404CF0010C604789
:100FC000DFE80CF0090B02024FF00041A1F500210F
:100FD0004FF0000070BD19461046012851EB010486
:100FE00018BFD4F5001484BF002001F0004170BD8B
:100FF0000808A0F500114FEA3101704710B591EAD9
:10100000030F48BF83F000433FF5FEAD841A71EB38
:10101000030C07D28CF0004C121943EB0C03001B9D
:1010200061EB0C014FEA1154A4EB135CDFF8A4E16F
:101030001EEA430F18BF9EEA445F00F0B48021EA25
:10104000045123EA6E035242C3EB6E0338BF5B1EAA
:10105000DCF1200E25D322FA0CFE10EB0E0043FA31
:101060000CFE41EB0E01CCF1200E03FA0EFE10EB4C
:101070000E00CCF1200E51F1000129D401EB0451F6
:1010800012FA0EF2BDE8104058BF7047401C1CBF5A
:10109000B2F1004F704700280CBF491C20F001003E
:1010A000704712EB020E43EB030218BF4FF0010E24
:1010B0004EEA4202ACF1200CDCF11E0E56D943FA86
:1010C0000CFE10EB0E00CCF11E0E51F1FF31D5D508
:1010D0000EF1010E12FA0EFE404141EB010101EB4F
:1010E000445C5FEA5C5C10D901EB045110EBDE70EC
:1010F00038BFBEF1004FBDE8104018BF7047002850
:101100000CBF491C20F00100704734D24FEAD42CA8
:1011100024F4006411F500111BD0B1FA81F20B3AEE
:10112000A41AA41ED2F12003914030FA03F319430C
:10113000904001EBCC7101EB0451002CBDE8104054
:10114000A8BF704701F1C04101F000414FF000001D
:101150007047B0FA80F310FA03F102D1BDE81040F5
:101160007047E41A173C4805C90AE2E701EB04514D
:10117000BDE81040704749104FEA300001EB0451C0
:10118000BDE8104002E04FF0000170474A0008BF80
:101190000042F8D0B2F5001F28BF704701F00041AF
:1011A0004FF0000070479EEA445F07D011EA5E0FDF
:1011B000BDE8104004BF002100207047BDE810408A
:1011C00070B5FFF7C7FE00BF40DFF63E104683F064
:1011D000004170470000E0FF10B5FFF7C1FD0CBFF4
:1011E0000120002010BD10B5FFF7BAFD14BF01208B
:1011F000002010BD10B5FFF735FE8CBF0120002088
:1012000010BD10B5FFF72EFE2CBF0120002010BD31
:1012100010B5FFF763FE94BF0120002010BD10B58C
:10122000FFF75CFE34BF0120002010BD0A154FEA15
:10123000C12343EA50534FEAC02C18BF43F0004388
:101240001BD4A2F24E02D2F57C72C0F22080502A4A
:10125000A8BF502223FA02F12CFA02F0D2F12002A8
:1012600060B484BF03FA02F52843C2F100029CBFB8
:1012700023FA02F5284360BC704701F1804212F561
:10128000801F04DA4FF000004FF00001704770B586
:10129000FFF760FE49922480002001E06FEAE170D0
:1012A00001467047C41300000000002068080000D9
:1012B000C00200001001000043000000F8FFFFFF23
:1012C0000040404040404040404041414141414059
:1012D000404040404040404040404040404040400E
:1012E000400502020202020202020202020202029D
:1012F00002202020202020202020200202020202A2
:1013000002029090909090901010101010101010F9
:101310001010101010101010101010100202020205
:101320000202888888888888080808080808080849
:101330000808080808080808080808080202020245
:10134000400000000000000000000000000000005D
:10135000000000000000000000000000000000008D
:10136000000000000000000000000000000000007D
:10137000000000000000000000000000000000006D
:10138000000000000000000000000000000000005D
:10139000000000000000000000000000000000004D
:1013A000000000000000000000000000000000003D
:1013B000000000000000000000000000000000002D
:0413C0000000000029
:040000050000026D88
:00000001FF
