:020000040000FA
:10000000600400206D020000710200007302000015
:100010007502000077020000790200000000000075
:100020000000000000000000000000007B02000053
:100030007D020000000000007F020000810200003D
:10004000830200008302000083020000830200009C
:10005000830200008302000083020000830200008C
:10006000830200008302000083020000830200007C
:10007000830200008302000083020000830200006C
:10008000830200008302000083020000830200005C
:10009000830200008302000083020000830200004C
:1000A000830200008302000083020000830200003C
:1000B000830200008302000083020000830200002C
:1000C000830200008302000083020000830200001C
:1000D000830200008302000083020000830200000C
:1000E00083020000830200008302000083020000FC
:1000F00083020000830200008302000083020000EC
:1001000083020000830200008302000083020000DB
:1001100083020000830200008302000083020000CB
:1001200083020000830200008302000083020000BB
:1001300083020000830200008302000083020000AB
:1001400000000000000000000000000000000000AF
:10015000830200008302000083020000830200008B
:10016000000000000000000000000000000000008F
:10017000000000000000000000000000000000007F
:10018000000000000000000000000000000000006F
:10019000000000000000000000000000000000005F
:1001A000000000000000000000000000000000004F
:1001B000830200008302000083020000830200002B
:1001C000830200008302000083020000830200001B
:1001D000830200008302000083020000830200000B
:1001E00083020000830200008302000083020000FB
:1001F00083020000830200008302000083020000EB
:10020000830200008302000083020000000000005F
:1002100083020000830200008302000083020000CA
:1002200083020000830200008302000083020000BA
:1002300083020000830200008302000083020000AA
:10024000830200008302000083020000830200009A
:10025000830200008302000083020000830200008A
:1002600083020000830200008302000000F00AB84D
:10027000FEE7FEE7FEE7FEE7FEE7FEE7FEE7FEE756
:10028000FEE7FEE700F002F800F02CF80AA090E884
:10029000000C82448344AAF10107DA4501D100F041
:1002A00021F8AFF2090EBAE80F0013F0010F18BFE2
:1002B000FB1A43F001031847F00700000008000094
:1002C0000023002400250026103A28BF78C1FBD85F
:1002D000520728BF30C148BF0B6070471FB51FBD14
:1002E00010B510BD00F0E9F81146FFF7F7FF00F078
:1002F000B7FA00F007F903B4FFF7F2FF03BC00F010
:100300000FF9000072B6704762B67047EFF31080C5
:1003100072B6704780F31088704730BF704702484C
:100320000249014A024B704760000020600400202F
:1003300060000020032A40F2308010F0030C00F02F
:10034000158011F8013BBCF1020F624498BF11F80F
:1003500001CB00F8013B38BF11F8013BA2F10402C8
:1003600098BF00F801CB38BF00F8013B11F0030340
:1003700000F04A80083AC0F0088051F8043B083A7F
:1003800051F804CBA0E80810F5E7121D5CBF51F846
:10039000043B40F8043BAFF30080D20724BF11F8C0
:1003A000013B11F801CB48BF11F8012B24BF00F825
:1003B000013B00F801CB48BF00F8012B70474FF01C
:1003C00000020429C0F0128010F0030C00F05080ED
:1003D000CCF1040CBCF1020F18BF00F8012BA8BF30
:1003E00020F8022BA1EB0C0100F042B85FEAC17CBF
:1003F00024BF00F8012B00F8012B48BF00F8012BA7
:10040000704770477047704710B5203AC0F00B80B6
:10041000B1E81850A0E81850B1E81850A0E81850FA
:10042000203ABFF4F5AF5FEA027C24BFB1E8185070
:10043000A0E8185044BF18C918C0BDE810405FEAD2
:10044000827C24BF51F8043B40F8043B08BF70474E
:10045000D20728BF31F8023B48BF11F8012B28BF53
:1004600020F8023B48BF00F8012B70474FF0000214
:1004700000B5134694469646203922BFA0E80C509A
:10048000A0E80C50B1F12001BFF4F7AF090728BF75
:10049000A0E80C5048BF0CC05DF804EB890028BFF1
:1004A00040F8042B08BF704748BF20F8022B11F01A
:1004B000804F18BF00F8012B7047754600F02CF8EC
:1004C000AE4605006946534620F00700854618B041
:1004D00020B5FFF724FFBDE820404FF000064FF0A5
:1004E00000074FF000084FF0000BAC46ACE8C00925
:1004F000ACE8C009ACE8C009ACE8C00921F00701CC
:100500008D46704710B50446AFF300802046BDE825
:100510001040FFF7F0BE00000048704700000020C8
:1005200001491820ABBEFEE726000200704700001C
:10053000FFE74DF21800C4F200000068C006002872
:1005400001D5FFE7F5E74DF20000C4F200000068B6
:10055000C0B2704780B582B0019000208DF80300D2
:10056000FFE7FFF7E5FF01999DF8032088549DF808
:10057000030001308DF80300FFE701999DF80300A7
:10058000084410F8010C0A28EBD1FFE79DF803009E
:1005900002388DF8030001999DF80320002088544B
:1005A00002B080BD4EF20411C4F20F01086840F0A1
:1005B000020008604EF20811C4F20F01086840F012
:1005C000020008604DF23001C4F20001086820F01A
:1005D000010008604DF22402C4F200021A201060EB
:1005E0004DF22802C4F20002032010604DF22C02EA
:1005F000C4F2000270201060086840F2013210431B
:10060000086045F22041C4F20001086840F0030090
:10061000086045F21C51C4F20001086840F0030074
:10062000086045F22C51C4F200010868112262F3FF
:100630000700086045F22851C4F20001086820F064
:10064000030008607047000081B08DF80300FFE7E9
:100650004DF21800C4F2000000688006002801D5A1
:10066000FFE7F5E79DF803004DF20001C4F2000139
:10067000086001B07047000080B582B00190FFE7CC
:100680000198007840B1FFE701980078FFF7DCFFA0
:10069000019801300190F3E702B080BDFFE74CF212
:1006A0001800C4F200000068C006002801D5FFE76A
:1006B000F5E74CF20000C4F200000068C0B27047D9
:1006C00080B584B00390ADF80A100020ADF80800A2
:1006D000FFF7E4FF8DF80700FFE79DF807000D28FE
:1006E00034D0FFE79DF80700082811D1FFE7BDF8D7
:1006F000080060B1FFE7039801380390BDF80800D7
:100700000138ADF80800082000F080F8FFE718E095
:10071000BDF80800BDF80A10884211DAFFE79DF81D
:10072000070003990870039801300390BDF8080092
:100730000130ADF808009DF8070000F067F8FFE70A
:10074000FFE7FFF7ABFF8DF80700C6E7039900202E
:100750000870BDF8080004B080BD00004EF204111E
:10076000C4F20F01086840F0010008604EF2081161
:10077000C4F20F01086840F0010008604CF230013B
:10078000C4F20001086820F0010008604CF2240067
:10079000C4F20000112202604CF22803C4F20003EC
:1007A000172018604CF22C03C4F20003702018606C
:1007B000086840F201331843086044F22041C4F253
:1007C0000001086840F00300086044F21C51C4F2C4
:1007D0000001086840F00300086044F22C51C4F2A4
:1007E0000001086862F30700086044F22851C4F26F
:1007F0000001086820F003000860704780B50D20F4
:1008000000F004F80A2000F001F880BD81B08DF8F6
:100810000300FFE74CF21800C4F2000000688006F5
:10082000002801D5FFE7F5E79DF803004CF2000131
:10083000C4F20001086001B07047000080B582B0CA
:100840000190FFE70198007840B1FFE70198007838
:10085000FFF7DCFF019801300190F3E702B080BDA3
:1008600080B5ADF51A7D00200390999057A84221DC
:10087000FFF7A5FD03980D218DF85C110A218DF875
:100880005D118DF85A0140F65C11C0F2000104A818
:100890004FF4A572FFF74EFDFFF760FFFFF782FEF2
:1008A00003988DF85B01FFE79DF85B0104281FDCCE
:1008B000FFE79DF85B0100EB401104A800EB41004D
:1008C000FFF7BCFFFFE74DF21800C4F2000000681C
:1008D0000007002801D5FFE7F5E70DF22220FFF71A
:1008E000ADFFFFE79DF85B0101308DF85B01DBE7B1
:1008F000FFE7FFF783FF78A802904221FFF7E0FEB1
:100900000298FFF7B9FE57A8FFF7B6FEFFE74DF2D2
:100910001800C4F2000000680007002801D5FFE7B6
:10092000F5E70DF5CF700190FFF714FEFFF766FFB6
:100930000198FFF783FFFFF761FF9DF8E7013F286C
:100940000BD1FFE70DF5CF700090FFF703FE009885
:10095000FFF774FFFFF752FFFFE7CAE73E3E3E573F
:10096000656C636F6D6520746F2053657269616C8F
:10097000205465726D696E616C2E3C3C3C200D0A02
:100980000000000000000000000000000000000067
:1009900000000000000000000000000000003E3EDB
:1009A0003E546869732069732074686520736574A8
:1009B00075702070726F6772616D20666F7220486B
:1009C000432D303520426C7565746F6F7468206DEF
:1009D0006F64756C652E3C3C3C200D0A00000000E5
:1009E0003E3E3E596F752061726520274154272095
:1009F000436F6D6D616E64204D6F64652E3C3C3CB1
:100A0000200D0A00000000000000000000000000AF
:100A100000000000000000000000000000000000D6
:100A200000003E3E3E547970652027415427204304
:100A30006F6D6D616E64204D6F64652E3C3C3C2093
:100A40000D0A00000000000000000000000000008F
:100A50000000000000000000000000000000000096
:100A6000000000003E3E3E4578616D706C653A20A6
:100A700041542B4E414D45203D20596F7572204EFB
:100A8000616D652E3C3C3C200D0A0000000000001A
:100A90000000000000000000000000000000000056
:100AA0000000000000000000B80A00000000002064
:080AB00060040000C002000018
:040000050000026D88
:00000001FF
