:020000040000FA
:10000000680400206D02000071020000730200000D
:100010007502000077020000790200000000000075
:100020000000000000000000000000007B02000053
:100030007D020000000000007F020000810200003D
:10004000830200008302000083020000830200009C
:10005000830200008302000083020000830200008C
:10006000830200008302000083020000830200007C
:10007000830200008302000083020000830200006C
:10008000830200008302000083020000830200005C
:10009000830200008302000083020000830200004C
:1000A000830200008302000083020000830200003C
:1000B000830200008302000083020000830200002C
:1000C000830200008302000083020000830200001C
:1000D000830200008302000083020000830200000C
:1000E00083020000830200008302000083020000FC
:1000F00083020000830200008302000083020000EC
:1001000083020000830200008302000083020000DB
:1001100083020000830200008302000083020000CB
:1001200083020000830200008302000083020000BB
:1001300083020000830200008302000083020000AB
:1001400000000000000000000000000000000000AF
:10015000830200008302000083020000830200008B
:10016000000000000000000000000000000000008F
:10017000000000000000000000000000000000007F
:10018000000000000000000000000000000000006F
:10019000000000000000000000000000000000005F
:1001A000000000000000000000000000000000004F
:1001B000830200008302000083020000830200002B
:1001C000830200008302000083020000830200001B
:1001D000830200008302000083020000830200000B
:1001E00083020000830200008302000083020000FB
:1001F00083020000830200008302000083020000EB
:10020000830200008302000083020000000000005F
:1002100083020000830200008302000083020000CA
:1002200083020000830200008302000083020000BA
:1002300083020000830200008302000083020000AA
:10024000830200008302000083020000830200009A
:10025000830200008302000083020000830200008A
:1002600083020000830200008302000000F00AB84D
:10027000FEE7FEE7FEE7FEE7FEE7FEE7FEE7FEE756
:10028000FEE7FEE700F002F800F02CF80AA090E884
:10029000000C82448344AAF10107DA4501D100F041
:1002A00021F8AFF2090EBAE80F0013F0010F18BFE2
:1002B000FB1A43F001031847280500003805000029
:1002C0000023002400250026103A28BF78C1FBD85F
:1002D000520728BF30C148BF0B6070471FB51FBD14
:1002E00010B510BD00F029F81146FFF7F7FF00F038
:1002F00043FA00F047F803B4FFF7F2FF03BC00F045
:100300004FF8000072B6704762B67047EFF3108086
:1003100072B6704780F31088704730BF704702484C
:100320000249014A024B704768000020680400201F
:1003300068000020704770477047754600F02CF841
:10034000AE4605006946534620F00700854618B0C2
:1003500020B5FFF7E4FFBDE820404FF000064FF066
:1003600000074FF000084FF0000BAC46ACE8C009A6
:10037000ACE8C009ACE8C009ACE8C00921F007014D
:100380008D46704710B50446AFF300802046BDE8A7
:100390001040FFF7B0BF0000004870470000002089
:1003A00001491820ABBEFEE726000200704700009E
:1003B0004EF20811C4F20F01086840F020000860F6
:1003C000FFE74EF20810C4F20F0000688006002814
:1003D00001D4FFE7F5E745F22051C4F2020144F2EF
:1003E0004B30C4F64F40086045F22451C4F202017C
:1003F000086840F00E00086045F22851C4F202017E
:10040000086820F00E00086045F22C51C4F2020189
:1004100008686FF31300086045F20041C4F202015E
:10042000086840F00E00086045F22041C4F2020165
:10043000086820F00E00086045F21C51C4F2020169
:10044000086840F00E00086045F23801C4F202016D
:10045000002008607047000081B04EF24061C4F295
:100460000F01086840F0010008604EF20860C4F215
:100470000F00016841F0020101600068009045F240
:100480002041C4F20001086840F08000086045F295
:100490002C51C4F20001086820F070400860086820
:1004A00040F08040086045F22851C4F2000108681D
:1004B00020F08000086045F21C51C4F20001086879
:1004C00040F0800008604EF26001C4F20F0108683D
:1004D00040F480100860086820F460200860086814
:1004E000086048F24001C4F202010020086048F2AE
:1004F0006403C4F2020340F608421A6048F2500353
:10050000C4F202034CF24F321A6048F25C02C4F2A9
:1005100002021060086840F00100086048F208011B
:10052000C4F20201086840F00200086001B07047A0
:100530004EF20811C4F20F01086840F01000086084
:10054000FFE74EF20810C4F20F00006800F0100040
:10055000102801D0FFE7F4E744F22851C4F2020169
:10056000086820F00F00086044F22C51C4F2020128
:1005700008684FF6FF729043086044F20041C4F2ED
:100580000201086840F00F00086044F22041C4F204
:100590000201086820F00F00086044F21C51C4F208
:1005A0000201086840F00F000860704780B540F213
:1005B0006001C2F200010020486001200860FFF7DE
:1005C0004BFF00F05BF8FFF7B3FF80BD81B04EF248
:1005D0007001C4F20F010091086840F0004008600B
:1005E000086840F4006008604EF26002C4F20F0236
:1005F000106820F4F8601060106800F5A8601060C2
:10060000086820F07000086008680860086820F436
:1006100000500860086840F08040086008680722C1
:1006200062F39C500860FFE74EF25000C4F20F00E6
:1006300000684006002801D4FFE7F5E74EF270019C
:10064000C4F20F01086820F40060086001B0704730
:1006500084B003910290019300920098013848F20F
:100660005801C4F2020108600298013848F25C01A6
:10067000C4F20201086004B0704700004EF240610D
:10068000C4F20F01086840F0010008604EF20861F2
:10069000C4F20F01086840F002000860FFE74EF264
:1006A0000860C4F20F0000688007002801D4FFE74B
:1006B000F5E745F22041C4F20001086840F040002F
:1006C000086045F22C51C4F20001086820F0706007
:1006D0000860086840F08060086045F22851C4F264
:1006E0000001086820F04000086045F21C51C4F287
:1006F0000001086840F04000086045F20851C4F26B
:100700000001086840F0C00008604EF26001C4F2C9
:100710000F010868082262F35440086048F2400163
:10072000C4F202010020086048F26003C4F2020330
:10073000C8221A6048F25003C4F202034CF24F324E
:100740001A6048F25802C4F202021060086840F0D1
:100750000100086048F20801C4F20201086840F094
:10076000010008607047000080B5FFF72FFFFFF71A
:100770001FFEFFF71BFF80BD80B582B000200090F8
:100780000190FFF7BFFDFFF7EFFFFFF7BDFD009BF7
:1007900046F2A81210461946FFF75AFF00F002F879
:1007A000FFE7FEE745F23801C4F2020108200860C5
:1007B00044F23C01C4F202010F20086048F2080133
:1007C000C4F20201086840F00200086049F2080122
:1007D000C4F20201086840F00100086070470000A0
:1007E000F00700000000002068040000C0020000C4
:040000050000026D88
:00000001FF
